S01500006672656572746F735F706F72742E7372656381
S31500000000971100009381018017710020130141FFB1
S315000000100A84174500201305E5FE1746002013063F
S31500000020E6FE098E8145EF001028174500201305CE
S3150000003065FD970500009385E57D1706000013060C
S3150000004066FCEF00F01E170500201305A5FB9705BB
S3150000005000009385257C170600001306A6FAEF001C
S31500000060301D170500001305E5F911C51705000039
S31500000070130545F90120EF00D015EF00B003014547
S30F0000008081450146792F6F005006F6
S315000000C0AE080000AE080000AE08000026080000DA
S315000000D0AE080000AE080000AE0800002A080000C6
S315000000E0AE080000AE080000AE080000AE08000032
S315000000F0AE080000AE080000AE080000AE08000022
S31500000100AE080000AE080000AE0800002E08000091
S3150000011032080000360800003A0800003E080000D9
S3150000012042080000460800004A0800004E08000089
S3150000013052080000560800005A0800005E08000039
S3150000014062080000660800006A0800006E080000E9
S3150000015072080000760800007A0800007E08000099
S3150000016082080000860800008A0800008E08000049
S3150000017092080000960800009A0800009E080000F9
S31100000180A2080000A6080000AA08000063
S309000001C0B20800007B
S30900000400FFFFFFFFF6
S30900000404D7CFFFFF4A
S31500000408FFFFFFFFFFFFFFFFFFFFFFFFFFFFFFFFEE
S31500000418FFFFFFFFFFFFFFFFFFFFFFFFFFFFFFFFDE
S31500000428FFFFFFFFFFFFFFFFFFFFFFFFFFFFFFFFCE
S30900000438FFFFFFFFBE
S31500000800FFFFFFFFFFFFFFFFFFFFFFFFFFFFFFFFF2
S31500000810B702100032051305353312050D0523A066
S31500000820A2000145828073002030730020307300DF
S3150000083020307300203073002030730020307300A6
S315000008402030730020307300203073002030730096
S315000008502030730020307300203073002030730086
S315000008602030730020307300203073002030730076
S315000008702030730020307300203073002030730066
S315000008802030730020307300203073002030730056
S315000008902030730020307300203073002030730046
S315000008A02030730020307300203073002030730036
S315000008B02030828001459302201C739052309302AF
S315000008C0000C73907230B71500E2890513062003F9
S315000008D083C605002A8713E516002380A500910527
S315000008E013051700E366C7FE8280411106C622C4BF
S315000008F02A8481450928374500200325450011C172
S31500000900029522853137797106D622D426D24AD06D
S315000009104ECE52CC56CA5AC85EC6B749002003AB63
S315000009200900630D0B08AE8A2A89094A83244B0005
S3150000093033C56421130445080DA0029603254B0018
S3150000094083A5090033C5AB00B3C565014D8DB3352D
S31500000950A00086057114638F4505635190062685B0
S31500000960FD1463870A00032604089D45E31456FF19
S3150000097083254B00032604F86316B502FD152322D2
S31500000980BB0005C683258B18832B4B003315902897
S31500000990E98DC5D58326CB180C40758D09C92E85E2
S315000009A0029669BF232004F871FE9D4565B74A8506
S315000009B0029669B703AB0900E31A0BF6B25022544C
S315000009C092540259F249624AD24A424BB24B4561AD
S315000009D08280411106C622C426C2371400001304C1
S315000009E004B437150000130505B4018D11C9098536
S315000009F08545B374B50A08400295FD141104E5FC5B
S31500000A0037140000130404B437150000130505B4A9
S31500000A10018D11C909858545B374B50A084002954B
S31500000A20FD141104E5FCB240224492444101828047
S31500000A30C1466366D600B3E6A5008D8A85C22A87BD
S31500000A40AE8701CE3A9683C5070085079306170041
S31500000A502300B7003687E398C6FE82803D48AA8603
S31500000A609C4183A8450098459CC2DC4523A21601FB
S31500000A7098C6C105DCC64116C106E363C8FE114728
S31500000A806361E6020D4883A8050093874500138736
S31500000A904600711623A01601BE85BA86E365C8FE18
S31500000AA04DB7368771BF9376350085C61307150097
S31500000AB0AA8735CE7D16938617002380B700137854
S31500000AC037000507B687E31608FE11476377E60089
S31500000AD0B1A0AA8611476363E60413F7F50FB707BB
S31500000AE001019387171041483307F7026362060531
S31500000AF03D4898C2D8C298C6938706014116D8C603
S31500000B00BE86E368C8FE91466368D6020D489386A2
S31500000B104700711698C3B687E36BC8FE09CA3696B6
S31500000B20138716002380B600BA86E31BC7FE8280B1
S31300000B30B6879146E37CD6FCBE8675F2CDBF35
S30700000B3E0000AF
S30901010008FFFFFFFFF0
S30901010010FFFFFFFFE8
S30901010018FFFFFFFFE0
S30901010020FFFFFFFFD8
S30901010028FFFFFFFFD0
S30901010030FFFFFFFFC8
S70500000000FA
