S01500006672656572746F735F706F72742E7372656381
S31500000000971100009381018017710020130141FFB1
S315000000100A84EF007059EF00F04C174500201305D5
S3150000002065FF175600201306E636098E8145EF2038
S31500000030A04D174500201305E5FC970500009385A4
S31500000040657D170600001306A6FCEF208044170501
S315000000500020130525FB970500009385657C170690
S315000000600000130626FAEF20C042EF00704917057C
S315000000700000130525F911C517050000130585F8BD
S315000000800120EF20203B014581450146EF10E00E9F
S309000000906F20A02B0C
S315000000C0860D0000860D0000860D0000020D000062
S315000000D0860D0000860D0000860D0000060D00004E
S315000000E0860D0000860D0000860D0000860D0000BE
S315000000F0860D0000860D0000860D0000860D0000AE
S31500000100860D0000860D0000860D00000A0D000019
S315000001100E0D0000120D0000160D0000A20E0000CC
S315000001201A0D00001E0D0000220D0000260D000015
S315000001302A0D00002E0D0000320D0000360D0000C5
S315000001403A0D00003E0D0000420D0000460D000075
S315000001504A0D00004E0D0000520D0000560D000025
S315000001605A0D00005E0D0000620D0000660D0000D5
S315000001706A0D00006E0D0000720D0000760D000085
S311000001807A0D00007E0D0000820D0000CC
S309000001C0A60D000082
S30900000400FFFFFFFFF6
S30900000404FFCFFFFF22
S31500000408FFFFFFFFFFFFFFFFFFFFFFFFFFFFFFFFEE
S31500000418FCFF0F00FFFF0F00FFFFFFFFFFFFFFFFBF
S31500000428FFFFFFFFFFFFFFFFFFFFFFFFFFFFFFFFCE
S30900000438FFFFFFFFBE
S31500000800FFFFFFFFFFFFFFFFFFFFFFFFFFFFFFFFF2
S3110000081038400020AAAAAAAA0440002032
S3150000081CB702100032051305353312050D0523A05A
S3150000082CA2007D157DFD8280711523200500130520
S3150000083C85FA10C121159742002083A2228023201D
S3150000084C5500814263870200711523200500FD12B5
S3150000085CD5BFF322003093F272FF130380181203F4
S3150000086CB3E2620071152320550071150CC182800C
S3150000087C173100200321C17C024182409242A10221
S3150000088C73900230D2436244F2440255925522567A
S3150000089CB2564257D2576258F25806499649264ADA
S315000008ACB64A464BD64B664CF64C065D965D265EB6
S315000008BCB65E465FD65FE6521733002003234374B9
S315000008CC23205300B24242431301C1078280F32214
S315000008DC203473231034F323003001A0F322203488
S315000008EC73231034F323003001A0011106CE22CC61
S315000008FC26CA4AC84EC6B7E40140697513050550A9
S3150000090C2D05239FA43E03C0A40A03C5040A15C1E2
S3150000091C03C5640309E503C5C40305896DDD03C579
S3150000092C040A41896DFD2380040A03C5040A418922
S3150000093C6DFD2383040203C56403937515002965B5
S3150000094C99C593050002A38BB402238B04021309E9
S3150000095C055003C5C40305896DDD03C5240305894C
S3150000096C01E505452389A40203C5044805891DC173
S3150000097C37450F00930505241305B0097528A38088
S3150000098C044823810448238004481305401F93051B
S3150000099C803E5D2085492388344937450F00130472
S315000009AC05241305B009A2854128238C34030D4573
S315000009BCA2855920A388340337057F40230235FDD1
S315000009CC03C0A40A03C5040A15C103C5640309E5DB
S315000009DC03C5C40305896DDD03C5040A41896DFD94
S315000009EC2380040A03C5040A41896DFD114588D08C
S315000009FC238A0404239F243FF2406244D244424992
S31500000A0CB2490561828037E501408345650211468E
S31500000A1C636AB600372600001306466BB3C5C520BD
S31500000A2C8C4129A0B7157A00938505200851160527
S31500000A3C758133D5A5008280797106D622D426D24B
S31500000A4C2E84AA84C937B7450F00938505242AD06E
S31500000A5C6316B40002553335950245C58255338568
S31500000A6C9502B3B5950222868146EF10B0322EC69A
S31500000A7C2AC42245B24593B51500133555516D8DD3
S31500000A8C01ED3245A2451386C5AEB335B6002E959B
S31500000A9C7D1532C42AC619A002C602C43245A24527
S31500000AAC3386A500B336B6003696B7B6AAAA138710
S31500000ABCB6AAB337E60293D41700F99BA6971D8EF8
S31500000ACCB387C5409386A6AAB386D702B3B4E7020A
S31500000ADCA696B3B5C5000D8D3305E5023695B385DF
S31500000AECE7022EC82ACA03200101D2450945B1EDF9
S31500000AFCD2454246D18DB1C90320410142452ACE89
S31500000B0C91A0025533059502B7E51B43938535E84D
S31500000B1C3335B50249812AC842459305B00563674A
S31500000B2CB5004245130565FA2AC811A002C842450C
S31500000B3CB7B5AAAA9385B5AA3335B50205812ACECF
S31500000B4C724509C97245F1390145B2502254925485
S31500000B5C456182800945D5BFB74500209385C509F7
S31500000B6CB325B52003D6050011C6039605007D16E0
S31500000B7C2390C50083D5050091C18280914563CE33
S31500000B8CA5008D456305B5069145631DB502372550
S31500000B9C0040C1552302B50C82809545630FB50400
S31500000BAC99456311B50237150440834535D093F545
S31500000BBCF50BA301B5D0834535D093E50508A30104
S31500000BCCB5D08280B7E501400396E53FB726000015
S31500000BDC9386866C3325D52003150500A966938666
S31500000BEC0650558E3375A640239FA53E8280372529
S31500000BFC0040C1552302B500828037250040C155FF
S31500000C0C2308B50C8280B74500209385C509B3250A
S31500000C1CB52003D6050019C60395050005052390D6
S31500000C2CA50082801146634EA6000D466304C506D8
S31500000C3C1146631DC5023725004045562302C50CD7
S31500000C4CE1BF1546630EC50419466311C502371577
S31500000C5C0440034635D01376F607A301C5D00346E8
S31500000C6C35D013660604A301C5D07DB737E601401F
S31500000C7C8316E63F372700001307876C3325E520DC
S31500000C8C03150500296713070750D98E558D231FA9
S31500000C9CA63E59B73725004045562302C500ADBFC1
S31500000CAC3725004045562308C50CBDB737450020EF
S31500000CBC1305C5099305E500231005000905E31D79
S31500000CCCB5FE82808280411106C6CD370100010037
S31500000CDCD53FB240410165A0411106C639313705F1
S31500000CEC7F40834585FC93E515002304B5FCB24093
S31500000CFC41018280C9BF730020307300203073001D
S31500000D0C20307300203073002030730020307300C5
S31500000D1C20307300203073002030730020307300B5
S31500000D2C20307300203073002030730020307300A5
S31500000D3C2030730020307300203073002030730095
S31500000D4C2030730020307300203073002030730085
S31500000D5C2030730020307300203073002030730075
S31500000D6C2030730020307300203073002030730065
S31500000D7C2030730020307300203073002030411176
S31500000D8C06C6A142739002301945B53D1D2025209B
S31500000D9C8D281945B2404101C1B382803715000038
S31500000DAC1305A58D731055309302000C7390723099
S31500000DBC828009A08280371504408545A307B5D0EB
S31500000DCC23260586232405862322058623200586CD
S31500000DDC232E0584232C0584232A058423280584A5
S31500000DEC2326058423240584232205849145232068
S31500000DFCB58437050440231705022316050209A0FE
S31500000E0C8280371500E28345D50593F5E50FA30ED1
S31500000E1CB504B765004003A605311316064923A889
S31500000E2CC53037160440832606869396E62823207B
S31500000E3CD68683260686ED9A2320D68603C64500DB
S31500000E4C1376F6072382C500238205007D56A30F71
S31500000E5CC5041306300C230FC50403A505310199EF
S31500000E6C23A8A53003A505311365650123A8A53074
S31500000E7C15A0376500408325053193950549232830
S31500000E8CB530371500E28345D50593E51500A30E5D
S31500000E9CB5048280828001112ACE2ECC32CA36C885
S31500000EAC3AC637450020832505011306803E1307F5
S31500000EBC800C930640066384E5009306803E63949B
S31500000ECCC5009306800C2328D50037650040832582
S31500000EDC0531939505492328B5307245E2455246AE
S31500000EECC2463247056173002030411106C622C442
S31500000EFC26C29305F5FF3956636AB6009375F5005D
S31500000F0C9304050189C5BD1563F5950A8144EF0067
S31500000F1C5025374500200325450109C50144634387
S31500000F2C900629A2B74500209385A50A13F6F5006D
S31500000F3C2E8501C61385F500419937460020232ED0
S31500000F4CA6001306C601232206000566B295C199B2
S31500000F5C138605FFB746002023AAC60023A805FE64
S31500000F6C83A6460123AA05FE098E50C114C1374536
S31500000F7C00202322C50237450020232CC50001443E
S31500000F8C6356900A37450020032585016360950A50
S31500000F9CB745002003A5C501504163729602104166
S31500000FAC09CEAA8532855042637D9600104175FAAA
S31500000FBC09A841999304050299BFB745002093856A
S31500000FCCC5013746002003264601630BC5061041B2
S31500000FDC804190C15041058E930610026369D6007C
S31500000FECB3069500D0C244C1904190C294C1504101
S31500000FFCB746002003A78601B745002083A7450204
S3150000100C3306C74023ACC6006374F60023A2C502A0
S3150000101C4C412320050037460020832686024104D6
S3150000102C9395F5294CC185062324D602EF0070143E
S3150000103C11E01D2A2285B24022449244410182804D
S3150000104C0144EF0010137DF4EDB7411106C622C41E
S3150000105C26C209C9832545FF63D60500130405FF7F
S3150000106C104011C6B24022449244410182809395AD
S3150000107CF549232AB5FEAA84EF00B00EA68503A572
S3150000108C44FF37460020832686013695232CA6007E
S3150000109C374600201306C60132851042E36E86FEE3
S315000010AC5041B306C5006397860083A545FFB295EC
S315000010BC4CC12A844C401041B306B4006384C6006C
S315000010CCB28621A8B746002083A646016307D60040
S315000010DC5042B2954CC00C41944114C06303850038
S315000010EC00C1374500208325C50285052326B50298
S315000010FCB2402244924441016F00B007930585002B
S3150000110C4CC17D5610C54CC50CC9232005008280E8
S3150000111C2328050082809041FD56630AD6001307EA
S3150000112C8500BA8658431C43E37DF6FE11A014498C
S3150000113CD042D0C10CC694C5CCC288C90C41850519
S3150000114C0CC18280104554410C4990C6504114453F
S3150000115CD0C2D0416314A6001045D0C12328050087
S3150000116C88417D1588C182807370043001A04111BD
S3150000117C06C637A501400C41F9990CC10C4193E503
S3150000118C25000CC10C4193E515000CC1DD3115454C
S3150000119C914501467522B745002023A8A5023715AF
S315000011AC00001305251DB72500009385E56CB74790
S315000011BC0020938747031306000805478146DD2167
S315000011CCEF00B01301A0411106C622C43704044037
S315000011DC48500C507E053D81939505494D8D131550
S315000011EC056908D01305007DD12DDDB74111732596
S315000011FC40F12AC63245B70500E61386450033652D
S3150000120CC5201105B746002023A0A6041442984118
S3150000121C1C42E39DF6FEB165938505B83306B7000F
S3150000122C3337E600BA9637470020232ED702232CF5
S3150000123CC70254C110C1032587030326C703AA9509
S3150000124C33B5A5003295232CB702232EA7024101F4
S3150000125C8280411106C6593F45451E05732045300F
S3150000126CEFF00FE10145B24041018280130141F8D4
S3150000127C06C416C61AC81ECA22CC26CE2AD02ED210
S3150000128C32D436D63AD83EDA42DC46DECAC0CEC2B4
S3150000129CD2C4D6C6DAC8DECAE2CCE6CEEAD0EED2E4
S315000012ACF2D4F6D6FAD8FEDA9732002083A202D50B
S315000012BC96DCF322003016C29732002083A242D865
S315000012CC23A0220073252034F32510342EC01711C9
S315000012DC000003216140EFF06FE017330020032379
S315000012EC23D60321030082427390123492427390E8
S315000012FC0230E65217330020032383D023205300F9
S3150000130CA240B2424243D2436244F2440255925541
S3150000131C2256B2564257D2576258F2580649964947
S3150000132C264AB64A464BD64B664CF64C065D965D3F
S3150000133C265EB65E465FD65F1301C107730020308A
S3150000134C45C53336B50245E23386A502930670FBD6
S3150000135C63EBC608411106C622C426C24AC02A84BB
S3150000136CAE841305860451362DC993B51400FD15AC
S3150000137C93F58504AA950CC140DD24C17370043025
S3150000138C374900208325490085052322B9004C5D89
S3150000139C304114413307B602369718C5232C050283
S315000013AC54C1FD15B385C502B6954CC5FD55230232
S315000013BCB504A302B504930505012A842E853D3B8D
S315000013CCA284130544021D3B032549007D152322E7
S315000013DCA90019E1736004302685B2402244924478
S315000013EC02494101828001458280011106CE22CC40
S315000013FC26CA4AC84EC652C47370043037490020F8
S3150000140C83254900AA8985052322B90003045504BE
S3150000141C6354800293844902054A31A01315446033
S3150000142C7D14635BAA00884001C92685EF00302530
S3150000143C75D5EF00903ADDB77D55A382A904032537
S3150000144C49007D152322A90019E1736004307370DD
S3150000145C0430374900200325490005052322A9003D
S3150000146C038449046354800293840901054A31A01C
S3150000147C131544607D14635BAA00884001C9268558
S3150000148CEF00F01F75D5EF005035DDB77D55238283
S3150000149CA904032549007D152322A90019E17360CF
S315000014AC0430F2406244D2444249B249224A0561B0
S315000014BC8280397106DE22DC26DA4AD84ED652D420
S315000014CC56D25AD05ECE62CC2E89AA84814B32CAB1
S315000014DC130A050193094502374C0020130BF00F34
S315000014EC19A0630D05127370043003254C00930587
S315000014FC15002322BC00805C39C0B04009CEC8441C
S3150000150C8C443295C8C46364B5008840C8C4CC44C6
S3150000151C4A85EF0050777D1480DC884819C55285C2
S3150000152CEF00F01519C17300000003254C007D1562
S3150000153C2322AC00854A01CD014505EDCDA0D2454F
S3150000154C99C9054563810B02854B05E5C9A87360EE
S3150000155C043005E1E9A02322AC00814A71FD7360D9
S3150000156C043001E96DA86800EF00D01E854B0545D7
S3150000157C5DC503254C007D152322AC0019E1736073
S3150000158C0430C5267370043003254C0093051500F2
S3150000159C2322BC0083C54404638B650383C55404B2
S315000015AC638D65032322AC0015CD68004C08EF0053
S315000015BCD01B05CD2685153D6D2E73700430832505
S315000015CC4C00885CE39F05F07360043019BF2382DE
S315000015DC040483C55404E39765FDA3820404232203
S315000015ECAC0061F573600430C9B7737004308325A1
S315000015FC4C00885C91C501C92685C53B9D2EE5B579
S3150000160C7360043075F9D2454E85ED2D2685F13B78
S3150000161C8D26E31A05EC73000000F1B5814A568558
S3150000162CF2506254D2544259B259225A925A025B1F
S3150000163CF24B624C21618280737004303747002074
S3150000164C83264700938716002322F7008347450419
S3150000165C1307F00F638EE700834755046380E70298
S3150000166C374700202322D70089CE145D99CEB5BB0F
S3150000167C2302050483475504E394E7FEA3020504FD
S3150000168CC5B773600430145DFDF2411106C622C461
S3150000169C930645022A843685112F2285B2402244B0
S315000016AC4101A1B3797106D622D426D24AD04ECEA8
S315000016BC52CC56CA5AC85EC662C43E89BA8AB68924
S315000016CCB28BAE842A8A13152600053005C52A8BE3
S315000016DC1305C004193809CD2A8C1306C00481459C
S315000016ECEF00D06123286C037D5B63190C0055AAAF
S315000016FC5A85A13A014C7D5B63050C1A03250C0334
S3150000170C33C5AB207115937B05FF95C013054C03B0
S3150000171CBD4503C604002300C50083C6040091C65C
S3150000172C2E86FD15050585046DF6A3010C047D4575
S3150000173C33D4AA0A23268C02930A4C005685C93A3E
S3150000174C13058C01F13223288C0113050002018D3F
S3150000175C232CAC0023228C035E85D2854E86EFF0BB
S3150000176CAF8C2320AC006304090023208901630A93
S3150000177C0C1273700430374500208325450085050F
S3150000178C2322B50037450020832505068505232031
S3150000179CB506B745002003A68504B75900209389E2
S315000017AC090C15C237450020032505052DE53745DF
S315000017BC002083258504CC550326CC02636DB60424
S315000017CC2324850589A823A48505032505068545B7
S315000017DC6313B50413840928CE8426850532D104F7
S315000017ECE39D84FE37590020130909344A853932A2
S315000017FCB75400209384443526850932375500208A
S3150000180C1305C50AE5383745002023282507374533
S3150000181C0020232A9506374500208325C507850514
S3150000182C232EB5060325CC02B745002003A6450694
S3150000183C3316A62823A2C5063345A52033453521E4
S3150000184C48412324AC000C452326BC000C4523A29E
S3150000185C5501232455010325CC023345A5203345D8
S3150000186C3521232AAC000C4137460020832646003E
S3150000187C85050CC1FD162322D60099E2736004304F
S3150000188C3745002003250505054B01CD37450020BE
S3150000189C0325850448558325CC026374B500730073
S315000018AC00005A85B250225492540259F249624AA7
S315000018BCD24A424BB24B224C4561828045C1011142
S315000018CC06CE22CC26CA4AC84EC652C42A843745EE
S315000018DC00208325C5058505232EB5043745002034
S315000018EC8324450537450020032905073745002085
S315000018FC83294507374A002003258A0411059930A8
S3150000190C01ED03258A044855B745002003A6450674
S3150000191C3315A64823A2A50603258A04269440C19E
S3150000192C83258A049105637694004E85EFF0AFFE0D
S3150000193C21A84A85EFF02FFE374500208325C504E4
S3150000194C6374B400232685042D20F2406244D244ED
S3150000195C4249B249224A056111C1828073000000D6
S3150000196C8280374500208325C5058505232EB504C1
S3150000197C8280011106CE22CC26CA4AC84EC6737086
S3150000198C0430374900200325490005052322A90008
S3150000199C374500208325C505FD15232EB5040325E3
S315000019ACC5050DC1014583254900FD152322B90046
S315000019BC99E173600430F2406244D2444249B24920
S315000019CC05618280374500200325050669DD3755FC
S315000019DC00208325C50AE5C1B752002037460020F2
S315000019ECB75600209386060C374700203748002050
S315000019FC854821A08325C50AD1CD83A7820BC04774
S31500001A0C1C504C4C04549CC54C4C1C50CCC3CC4068
S31500001A1C930784016394F5000C50CCC02324040274
S31500001A2C8C40FD158CC04C4404445C488CC40C445E
S31500001A3C4444CCC0CC4393044400639495004C447A
S31500001A4CCCC3232A04008C43FD158CC34C5483272A
S31500001A5C4606B397B7282322F606B3C5B520B3C5F9
S31500001A6CD520CC410CC49C455CC49C45C4C384C5E0
S31500001A7C4C54B3C5B520B3C5D5204CC89C4185077D
S31500001A8C9CC14C5483278704DC57E3F5B7F6232413
S31500001A9C18078DB70DC037450020832505078C41E7
S31500001AAC91C5032505074845084111A07D55B74545
S31500001ABC002023A6A504374500200324C50605C02F
S31500001ACCB7490020854419A07D1411C46D206DDD25
S31500001ADC23A49906D5BF374500202326050637458E
S31500001AEC002003258506E30005EC3745002003207E
S31500001AFC85047300000005457DB5011106CE22CC88
S31500001B0C1305D1002D468145EF00501F37454C4536
S31500001B1C130595442AC42306010037250000130536
S31500001B2C25FFB7470020938787052C00130600086E
S31500001B3C81460147853E0544631785027D2963145A
S31500001B4C85027370043037450020FD552326B504F5
S31500001B5C3745002085452328B50437450020232A20
S31500001B6C0504EFF00FEF372500000320456EF24019
S31500001B7C624405618280374500200325C50511C9DD
S31500001B8CB745002003A6C5060145050623A6C506CE
S31500001B9C82803745002083254505138E1500232AA0
S31500001BACC50563130E043745002003260507B74603
S31500001BBC002003A746072328E50623AAC6063746B0
S31500001BCC0020832686078506232CD60603260507C2
S31500001BDC104211C6032505074845084111A07D553D
S31500001BEC374600202326A604374500200325C504C6
S31500001BFCB75200209382020C6374AE000145C1A853
S31500001C0C374300200325030708417D584DCD014578
S31500001C1CB7430020B748002029A0832503078C4131
S31500001C2CDDC10326030750465446D042636CCE08EA
S31500001C3CD0469C46D84A90C79046DC46D0C35C43F7
S31500001C4C138646006394C700DC465CC323AA0600D1
S31500001C5C1C43FD171CC398561DC39C52CC4E9CC5E9
S31500001C6CCC4E9C52CCC34C43938786016394F500AF
S31500001C7C8C524CC323A406020C43FD150CC3CC5644
S31500001C8C03A743063317B72823A2E306B3C5B5202B
S31500001C9CB3C55520CC418CC69845D8C6984550C37B
S31500001CAC90C5CC56B3C5B520B3C55520CCCA90410A
S31500001CBC050690C1CC5603A688045056E37FB6F4AD
S31500001CCC0545A1BF3288B745002023A60505B745B3
S31500001CDC002083A58504CC55B3C5B520B3C55520C6
S31500001CEC8C4105466373B6000545B745002083A5B0
S31500001CFC8506E38F05E805458280374500200325D8
S31500001D0C45058280011106CE22CC26CA4AC84EC68B
S31500001D1C52C4B744002003A684042E8A9305860178
S31500001D2CEFF06FBF374500200324450537450020EB
S31500001D3C03290507374500208329450703A5840495
S31500001D4C1105EFF02FC001ED03A584044855B745E6
S31500001D5C002003A645063315A64823A2A50603A50F
S31500001D6C8404229A2322450183A584049105637C6D
S31500001D7C8A004E85F2406244D2444249B249224A14
S31500001D8C05616FF04FB94A85EFF0EFB83745002083
S31500001D9C8325C5046374BA0023264505F2406244C4
S31500001DACD2444249B249224A05618280011106CECB
S31500001DBC22CC26CA4AC84EC652C4544137440020C7
S31500001DCC0327840454CF98468327840498D3032787
S31500001DDC84049C466107D8C303278404610798C60C
S31500001DEC8326840488D61441850614C13745002001
S31500001DFC8324450537450020032905073745002070
S31500001E0C8329450703258404133616007D16336A89
S31500001E1CB6001105EFF00FB301ED03258404485508
S31500001E2CB745002003A645063315A64823A2A506EA
S31500001E3C03258404269A23224501832584049105CF
S31500001E4C637C9A004E85F2406244D2444249B249C0
S31500001E5C224A05616FF02FAC4A85EFF0CFAB3745C0
S31500001E6C00208325C5046374BA0023264505F24079
S31500001E7C6244D2444249B249224A056182804845AD
S31500001E8C48450C51544D10558CC64C4D1451CCC272
S31500001E9C5442930585016394B600145154C223240D
S31500001EAC05021442FD1614C2374600200326C60549
S31500001EBC11CE375600201306C60A544254CD984606
S31500001ECC18D198464CC38CC610D595A04C451445D4
S31500001EDC50498CC60C455445CCC25442930545001A
S31500001EEC6394B600544554C2232A05001442FD16C9
S31500001EFC14C25055B746002003A746063317C72809
S31500001F0C23A2E6063346C620B75600209386060C57
S31500001F1C3346D620504210C5184658C518464CC3F1
S31500001F2C0CC64C55B3C5B52033C6D52050C90C428A
S31500001F3C85050CC24855B745002083A58504CC55AC
S31500001F4C63F8A500B7450020054523A4A5068280A5
S31500001F5C01458280B745002083A585070CC1B7458E
S31500001F6C002083A545054CC182807370043037462A
S31500001F7C00208326460085062322D60037460020FD
S31500001F8C03264605544137470020032787071C4183
S31500001F9C6304F7006374D6029841158E6370E602EB
S31500001FAC118F98C1B745002083A585070CC1B7458D
S31500001FBC002083A545054CC1014521A023A00500A1
S31500001FCC0545B745002003A645007D1623A2C5008E
S31500001FDC11C28280736004308280374500208545AB
S31500001FEC2324B50682803755002089450326050C27
S31500001FFCE36EB6FE73000000D5BF011106CE22CCEF
S3150000200C26CA4AC84EC673700430374400200325CE
S3150000201C4400B744002083A5040805052322A40028
S3150000202C95ED37590020130989364A85EFF00F8D47
S3150000203CB75900209389C9374E85EFF02F8C374559
S3150000204C0020232425093745002023263509294558
S3150000205CB1450146EFF0CFAE23A0A40803254400FA
S3150000206C7D152322A40019E1736004303745002046
S3150000207C032505080DC9372500001305050CB725E2
S3150000208C00009385556DB7470020938747081306C4
S3150000209C00107D478146F2406244D2444249B2491F
S315000020AC05616FF02FE0F2406244D2444249B249D6
S315000020BC05618280397106DE22DC26DA4AD84ED6D4
S315000020CC52D456D25AD05ECE62CC66CAB7490020DC
S315000020DC374A0020B74A0020374B0020A14B372C3B
S315000020EC0000130C8C6E03A58908044189C448456D
S315000020FC0329050011A00149AD30013183250A09D8
S3150000210C2A84637BB50003A589080C4185C1484523
S3150000211C0841FD55412AC5BF23288A0895C063612D
S3150000212C240381384A85A285B52A2DA883A5CA0819
S3150000213C23A4B90823A6AA0823288A081D381DA09B
S3150000214C99C0014631A003A5CA08084113361500EB
S3150000215C03250B08B3058940EFF00FCE193819E1AA
S3150000216C7300000003250B0802C802C602C401A8AE
S3150000217C03A58908CA85EFE01FFA03250B082C0076
S3150000218C0146EFF00FB325D12245E34805FE424444
S3150000219C6DD448481309440001C54A85EFE09FFAFF
S315000021ACA93E83250A09AA8C6371B50203A5890881
S315000021BC0C4191C548450841FD55ED20C5BF83A589
S315000021CCCA0823A4B90823A6AA0822457D152328E4
S315000021DC9A09E3E4ABFA33458521084102850345A8
S315000021EC440232460C4C936615002302D402B38685
S315000021FCC50054C000C863F7DC00E3FBCCF663F7FC
S3150000220CC600BDB73386CC406369B602137645006B
S3150000221C1DEE1375A50F2302A40249A083454402A3
S3150000222C324593E515002302B40208CCB30595019B
S3150000223C4CC000C8E3EEBCF229D103A5CA081DBFE9
S3150000224C034544021375E50F2302A4023DB732453C
S3150000225CAA9509A8B385BC4063EDA5020C5022854E
S3150000226C8295A685084CB304B50044C000C8E3F3B8
S3150000227C9CFE63F4BC00E3F3B4FE03A5890821A815
S3150000228C0345440293752500D5FD2285EFE0FFDB5F
S3150000229CEDB503A5CA08CA85EFE0FFE70C50228509
S315000022AC8295E1BD011106CE22CC26CA4AC84EC67D
S315000022BC52C437460020032686085046032AC60019
S315000022CCAE892A8413094A004A85EFE0BFE7034525
S315000022DC4A029375450099ED1375A50F2302AA02C0
S315000022ECA1A0B385894063EAA50283250A0252851B
S315000022FC8295268403258A01B304850023229A003D
S3150000230C23284A01E3FF99FC63F48900E3FF84FC6C
S3150000231C374500200325850829A0374500200325CD
S3150000232CC508CA85EFE03FDF83270A025285F240D3
S3150000233C6244D2444249B249224A0561828741111C
S3150000234C06C622C42A848145112837450020032558
S3150000235C850911C102952285EFE08FCB797106D6DE
S3150000236C22D426D24AD04ECE52CC56CA5AC85EC6B3
S3150000237CB749002003AB4909630D0B08AE8A2A89BD
S3150000238C094A83244B0033C56421130445080DA068
S3150000239C029603254B0083A5490933C5AB00B3C58B
S315000023AC65014D8DB335A00086057114638F450507
S315000023BC635190062685FD1463870A0003260408DC
S315000023CC9D45E31456FF83254B00032604F863163C
S315000023DCB502FD152322BB0005C683258B18832B5E
S315000023EC4B0033159028E98DC5D58326CB180C40A8
S315000023FC758D09C92E85029669BF232004F871FED6
S3150000240C9D4565B74A85029669B703AB4909E31A38
S3150000241C0BF6B250225492540259F249624AD24AED
S3150000242C424BB24B45618280411106C622C426C27C
S3150000243C372400001304C470372500001305C5703B
S3150000244C018D11C909858545B374B50A08400295F5
S3150000245CFD141104E5FC372400001304C470372561
S3150000246C00001305C570018D11C909858545B37426
S3150000247CB50A08400295FD141104E5FCB24022444D
S3150000248C924441018280C1466366D600B3E6A5003C
S3150000249C8D8A85C22A87AE8701CE3A9683C50700F8
S315000024AC8507930617002300B7003687E398C6FE08
S315000024BC82803D48AA869C4183A8450098459CC2CB
S315000024CCDC4523A2160198C6C105DCC64116C10619
S315000024DCE363C8FE11476361E6020D4883A8050055
S315000024EC9387450013874600711623A01601BE85F7
S315000024FCBA86E365C8FE4DB7368771BF937635004D
S3150000250C85C613071500AA8735CE7D169386170048
S3150000251C2380B700137837000507B687E31608FE45
S3150000252C11476377E600B1A0AA8611476363E604F8
S3150000253C13F7F50FB70701019387171041483307B7
S3150000254CF702636206053D4898C2D8C298C69387BF
S3150000255C06014116D8C6BE86E368C8FE9146636876
S3150000256CD6020D4893864700711698C3B687E36B5F
S3150000257CC8FE09CA3696138716002380B600BA869B
S3150000258CE31BC7FE8280B6879146E37CD6FCBE86EB
S3150000259C75F2CDBF89EA131706601308070299C5B1
S315000025AC9398056001A813980660FDF9131705604A
S315000025BC93080702330718419307F00363F5E70006
S315000025CC014581458280630FF70C130E17FE9302AB
S315000025DC170063450E0033D3C50121A833535500AC
S315000025ECF947B383E74093971500B39777003363A6
S315000025FCF300B3D35500135FFE419342F7FFFD473B
S3150000260C338EE740B31E550063440E00F68F29A89F
S3150000261C9307F003998FB395550013C7F7FF058100
S3150000262C3355E500B3EFA50081428145B3777F00B2
S3150000263C1357FE41B373D7011345F8FFAA9813D568
S3150000264CFF013325A3201357F30133A8E72093D7B3
S3150000265CF301B3A7FF208603B3E35300B3EFB70030
S3150000266C9345F8FF1347F5FFB307C70033B7E700E9
S3150000267CB695BA9593D2F501FD8533F7D500F18D54
S3150000268CB337B5003307E840B307F7408508330383
S3150000269CB5408145E39508FA13D5F301B3A5AF20F0
S30B000026AC33A553208280D5
S315000026B4006CDC0200127A0000800000002D31015B
S315000026C400800000010002000800426C696E6B790C
S315000026D400546D722053766300000000FC6F0020E6
S315000026E41F000000EA210000EA2100004C2200003D
S315000026F4282200008C220000EA210000EA210000C2
S30D000027044C220000282200000F
S30901010008FFFFFFFFF0
S30901010010FFFFFFFFE8
S30901010018FFFFFFFFE0
S30901010020FFFFFFFFD8
S30901010028FFFFFFFFD0
S30901010030FFFFFFFFC8
S70500000000FA
